:100000000C9434000C943E000C943E000C943E0082
:100010000C943E000C943E000C943E000C943E0068
:100020000C943E000C943E000C943E000C943E0058
:100030000C943E000C943E000C943E000C943E0048
:100040000C943E000C943E000C943E000C943E0038
:100050000C943E000C943E000C943E000C943E0028
:100060000C943E000C943E0011241FBECFEFD8E04C
:10007000DEBFCDBF0E94A1000C94B3000C94000021
:1000800093B184B1809584B985B1809585B9EFE14C
:10009000FEE43197F1F700C0000083B19F70807FCC
:1000A000892B8E3E19F496E09BB90AC08E3D19F457
:1000B00096E69BB90AC08E3B19F497E09BB90AC03B
:1000C0008E3719F499E79BB90AC08D3E19F49BE568
:1000D0009BB90AC08D3D19F49DE69BB90AC08D3BC2
:1000E00019F49FE79BB90AC08D3719F49FE39BB9B8
:1000F0000AC08B3E19F49FE49BB90AC08B3D19F4EA
:100100009DE79BB90AC08B3B19F49FE69BB90AC0D7
:100110008B3719F491E79BB90AC0873E19F497E72A
:100120009BB90AC0873D19F48CE78BB90895873BCA
:1001300019F489E38BB90895873711F48EE58BB9EB
:1001400008958FEF8AB92FEF86E791E02150804024
:100150009040E1F700C0000080EF84B98FE085B9DE
:0A0160000E944000FDCFF894FFCF8D
:00000001FF
