S00E00004C4142352D312E73726563B4
S11300000C9434000C943E000C943E000C943E007E
S11300100C943E000C943E000C943E000C943E0064
S11300200C943E000C943E000C943E000C943E0054
S11300300C943E000C943E000C943E000C943E0044
S11300400C943E000C943E000C943E000C943E0034
S11300500C943E000C943E000C943E000C943E0024
S11300600C943E000C943E0011241FBECFEFD8E048
S1130070DEBFCDBF0E9457000C949B000C9400007F
S11300800F931F930FEF04B910E01AB91F910F914A
S113009008950F9321E030E0A90102C0440F551FD9
S11300A08A95E2F705B1042705B90F910895CF9316
S11300B0DF930E94400089B18130C1F58FE493EC55
S11300C00197F1F700C0000099B189B18130E9F3DB
S11300D0913039F025C0C830D10529F4C0E0D0E012
S11300E002C0C0E0D0E08C2F0E9449009FE72AE1C3
S11300F086E0915020408040E1F700C000008C2F42
S11301000E9449009FEF29E688E1915020408040F9
S1130110E1F700C00000219689B18130E1F606C004
S113012080E00E94490089B18130D1F780E090E0FD
S10D0130DF91CF910895F894FFCFFA
S9030000FC
