S00C00004C4142382E7372656311
S11300000C9434000C9449000C9449000C9449005D
S11300100C9449000C9449000C9449000C94490038
S11300200C9449000C9449000C9449000C94490028
S11300300C9449000C9449000C9449000C94490018
S11300400C9449000C9449000C9449000C94490008
S11300500C9449000C9449000C9449000C944900F8
S11300600C9449000C94490011241FBECFEFD8E032
S1130070DEBFCDBF11E0A0E0B1E0EAE2F2E002C0F1
S113008005900D92A833B107D9F70E94D6000C94BD
S113009013010C9400009BB19BB98BB9299A85E09C
S11300A08A95F1F7000029988FE891E00197F1F71C
S11300B000C00000089528980E944B000895289AD3
S11300C00E944B00089581E00E945B008FE89AE152
S11300D00197F1F700C0000008958EE00E945B00D4
S11300E087EC90E00197F1F700C0000008958CE0E0
S11300F00E945B0087EC90E00197F1F700C00000DC
S113010008958AB18FEF8AB984B1836084B929983C
S11301108FE39FE10197F1F700C0000088E30E949C
S11301205B008EE00E945B0081E00E945B0086E041
S11301300E945B000E9463000895CF93DF9300D078
S113014000D0CDB7DEB790E8998390EC9A8394E918
S11301509B8394ED9C83FE01E60FF11D81509081F9
S1130160890F0E945B008FE891E00197F1F700C0CE
S113017000000F900F900F900F90DF91CF91089592
S11301800F931F93CF93FC018081882359F08F0133
S1130190C0E00E945F00CF5FF801EC0FF11D808189
S11301A08111F7CFCF911F910F9108950E94810083
S11301B00E9477000E94630061E081E00E949D003C
S11301C080E091E00E94C00062E081E00E949D0016
S11301D081E191E00E94C0000E946D002FEF81E157
S11301E09AE7215080409040E1F700C000000E944F
S11301F0630061E081E00E949D008DE191E00E9436
S1130200C00062E081E00E949D008DE291E00E94C6
S1130210C0002FEF85EE9AEA215080409040E1F72C
S10D022000C00000C7CFF894FFCF20
S113022A54686520776F726C6420697320627574F0
S113023A006F6E6520636F756E74727900616E6407
S113024A206D616E6B696E642069747300636974EE
S10B025A697A656E732E000041
S9030000FC
