S00D00004C414230372E73726563E1
S11300000C9434000C9446000C9460000C9446004C
S11300100C9446000C9446000C9446000C94460044
S11300200C9446000C9446000C9446000C948800F2
S11300300C9446000C9446000C9446000C94460024
S11300400C9446000C9446000C9446000C94460014
S11300500C9446000C9446000C9446000C94460004
S11300600C9446000C94460011241FBECFEFD8E038
S1130070DEBFCDBF21E0A0E0B1E001C01D92A13000
S1130080B207E1F70E9454000C94AE000C940000F7
S1130090109280008DE0809381008AE197EB909329
S11300A089008093880008955398569AE99AE9E65E
S11300B0F0E080818C6080830E9448007894FFCFB8
S11300C01F920F920FB60F9211248F93EF93FF9309
S11300D080910001811106C0E9E6F0E080818C6026
S11300E0808305C0E9E6F0E0808188608083109217
S11300F0850010928400EFE6F0E0808182608083C6
S1130100FF91EF918F910F900FBE0F901F90189554
S11301101F920F920FB60F9211248F93EF93FF93B8
S113012080910001811105C05E9A81E080930001F5
S113013008C0E9E6F0E08081886080835E981092D0
S11301400001EFE6F0E080818D7F8083FF91EF91E5
S11301508F910F900FBE0F901F901895F894FFCFBA
S9030000FC
